{
	"data": {
		"bytecode": {
			"linkReferences": {},
			"object": "608060405260055f553480156012575f5ffd5b5060fe8061001f5f395ff3fe6080604052600436106039575f3560e01c80633430a88c14603d5780636ce1417e146062578063bc6bdb9814606a578063f36089ec14607d575b5f5ffd5b3480156047575f5ffd5b50604e6090565b6040516059919060b1565b60405180910390f35b60686095565b005b3480156074575f5ffd5b50607b6097565b005b3480156087575f5ffd5b50608e6099565b005b5f5481565b565b565b565b5f819050919050565b60ab81609b565b82525050565b5f60208201905060c25f83018460a4565b9291505056fea264697066735822122027c3c56ec2c7682bcd68bc40677349d08d8fca65903227c9421a2d34c9cb8b2f64736f6c634300081e0033",
			"opcodes": "PUSH1 0x80 PUSH1 0x40 MSTORE PUSH1 0x5 PUSH0 SSTORE CALLVALUE DUP1 ISZERO PUSH1 0x12 JUMPI PUSH0 PUSH0 REVERT JUMPDEST POP PUSH1 0xFE DUP1 PUSH2 0x1F PUSH0 CODECOPY PUSH0 RETURN INVALID PUSH1 0x80 PUSH1 0x40 MSTORE PUSH1 0x4 CALLDATASIZE LT PUSH1 0x39 JUMPI PUSH0 CALLDATALOAD PUSH1 0xE0 SHR DUP1 PUSH4 0x3430A88C EQ PUSH1 0x3D JUMPI DUP1 PUSH4 0x6CE1417E EQ PUSH1 0x62 JUMPI DUP1 PUSH4 0xBC6BDB98 EQ PUSH1 0x6A JUMPI DUP1 PUSH4 0xF36089EC EQ PUSH1 0x7D JUMPI JUMPDEST PUSH0 PUSH0 REVERT JUMPDEST CALLVALUE DUP1 ISZERO PUSH1 0x47 JUMPI PUSH0 PUSH0 REVERT JUMPDEST POP PUSH1 0x4E PUSH1 0x90 JUMP JUMPDEST PUSH1 0x40 MLOAD PUSH1 0x59 SWAP2 SWAP1 PUSH1 0xB1 JUMP JUMPDEST PUSH1 0x40 MLOAD DUP1 SWAP2 SUB SWAP1 RETURN JUMPDEST PUSH1 0x68 PUSH1 0x95 JUMP JUMPDEST STOP JUMPDEST CALLVALUE DUP1 ISZERO PUSH1 0x74 JUMPI PUSH0 PUSH0 REVERT JUMPDEST POP PUSH1 0x7B PUSH1 0x97 JUMP JUMPDEST STOP JUMPDEST CALLVALUE DUP1 ISZERO PUSH1 0x87 JUMPI PUSH0 PUSH0 REVERT JUMPDEST POP PUSH1 0x8E PUSH1 0x99 JUMP JUMPDEST STOP JUMPDEST PUSH0 SLOAD DUP2 JUMP JUMPDEST JUMP JUMPDEST JUMP JUMPDEST JUMP JUMPDEST PUSH0 DUP2 SWAP1 POP SWAP2 SWAP1 POP JUMP JUMPDEST PUSH1 0xAB DUP2 PUSH1 0x9B JUMP JUMPDEST DUP3 MSTORE POP POP JUMP JUMPDEST PUSH0 PUSH1 0x20 DUP3 ADD SWAP1 POP PUSH1 0xC2 PUSH0 DUP4 ADD DUP5 PUSH1 0xA4 JUMP JUMPDEST SWAP3 SWAP2 POP POP JUMP INVALID LOG2 PUSH5 0x6970667358 0x22 SLT KECCAK256 0x27 0xC3 0xC5 PUSH15 0xC2C7682BCD68BC40677349D08D8FCA PUSH6 0x903227C9421A 0x2D CALLVALUE 0xC9 0xCB DUP12 0x2F PUSH5 0x736F6C6343 STOP ADDMOD 0x1E STOP CALLER "
		},
		"gasEstimates": {
			"creation": {
				"codeDepositCost": "50800",
				"executionCost": "22202",
				"totalCost": "73002"
			},
			"external": {
				"Fund()": "119",
				"getConversionRate()": "187",
				"getPrise()": "165",
				"minimumUSD()": "2402"
			}
		},
		"methodIdentifiers": {
			"Fund()": "6ce1417e",
			"getConversionRate()": "f36089ec",
			"getPrise()": "bc6bdb98",
			"minimumUSD()": "3430a88c"
		}
	},
	"abi": [
		{
			"inputs": [],
			"name": "Fund",
			"outputs": [],
			"stateMutability": "payable",
			"type": "function"
		},
		{
			"inputs": [],
			"name": "getConversionRate",
			"outputs": [],
			"stateMutability": "nonpayable",
			"type": "function"
		},
		{
			"inputs": [],
			"name": "getPrise",
			"outputs": [],
			"stateMutability": "nonpayable",
			"type": "function"
		},
		{
			"inputs": [],
			"name": "minimumUSD",
			"outputs": [
				{
					"internalType": "uint256",
					"name": "",
					"type": "uint256"
				}
			],
			"stateMutability": "view",
			"type": "function"
		}
	]
}